:100000000C94EB000C940B010C940B010C940B0161
:100010000C940B010C940B010C940B010C940B0130
:100020000C940B010C940B010C940B010C940B0120
:100030000C940B010C940B010C940B010C940B0110
:100040000C940B010C940B010C940B010C940B0100
:100050000C940B010C940B010C940B010C940B01F0
:100060000C940B010C940B010C940B010C940B01E0
:100070000C940B010C940B010C940B010C940B01D0
:100080000C940B010C940B010C940B010C940B01C0
:100090000C940B010C940B010C940B010C940B01B0
:1000A0000C940B010C940B010C940B010C940B01A0
:1000B0000C940B010C940B010C940B010C940B0190
:1000C0000C940B010C940B010C940B01696E6600EF
:1000D000494E46006E616E004E414E0000407A105F
:1000E000F35A00A0724E18090010A5D4E80000E8E9
:1000F0007648170000E40B54020000CA9A3B000047
:1001000000E1F505000080969800000040420F00D5
:100110000000A08601000000102700000000E80396
:10012000000000006400000000000A000000000061
:100130000100000000002C76D888DC674F0823DF20
:10014000C1DFAE59E1B1B796E5E3E453C63AE651F3
:10015000997696E8E6C28426EB898C9B62ED407C1A
:100160006FFCEFBC9C9F40F2BAA56FA5F490055AB6
:100170002AF75C936B6CF9676DC11BFCE0E40D47DB
:10018000FEF520E6B500D0ED902E030094357705FE
:100190000080841E080000204E0A000000C80C33B6
:1001A0003333330F986E12831141EF8D2114893B45
:1001B000E65516CFFEE6DB18D1844B381BF77C1DC5
:1001C000901DA4BBE424203284725E228100C9F118
:1001D00024ECA1E53D2711241FBECFEFD1E2DEBF05
:1001E000CDBF14BE88E10FB6F894809360001092E2
:1001F00060000FBE12E0A0E0B2E0EEECFCE000E038
:100200000BBF02C007900D92AE30B107D9F70E9424
:100210009E040C9465060C94000020EA3FE004C0A4
:10022000F9013197F1F701970097D1F7089524E08C
:1002300030E004C0F9013197F1F701970097D1F749
:10024000089589B182958F708095817008954C9939
:10025000FECF8EE190E020EA3FE0F9013197F1F71F
:100260000197D9F74C9BFECF8EE190E020EA3FE06A
:10027000F9013197F1F70197D9F70895A29A0895F6
:10028000A298089584B394E0892784BB08958230AE
:10029000A8F1482F42506130710539F16130710584
:1002A00028F06230710509F04EC00FC081B121E025
:1002B00030E002C0220F331F4A95E2F720958223D7
:1002C00081B982B1282322B9089531B181E090E04B
:1002D00002C0880F991F4A95E2F7282F2095232303
:1002E00021B922B1822B82B9089581B102C0660F73
:1002F000771F4A95E2F7862B81B90895813091F4F2
:100300006130710569F06130710520F0623071056E
:10031000D1F403C027982F98089527982F9A08950D
:10032000279A08956130710569F06130710520F0F8
:100330006230710541F403C024982C9808952498E4
:100340002C9A0895249A0895282F80FF02C0249A99
:1003500001C0249821FF02C0279A01C027989695D2
:1003600087959695879581B90895249905C080FF52
:1003700002C02C9A01C02C98279905C081FF02C0A9
:100380002F9A01C02F98969587959695879540E06E
:1003900050E0682F70E0E1E0F0E081B190E0042EE1
:1003A00002C0959587950A94E2F780FD1FC0CB01A6
:1003B000042E02C0959587950A94E2F780FF0BC042
:1003C00022B1CF01042E02C0880F991F0A94E2F7D0
:1003D000282B22B90BC022B1CF01042E02C0880FF6
:1003E000991F0A94E2F78095822382B94F5F5F4F8D
:1003F0004830510591F608958230B0F040B1282F71
:1004000030E02250304081E090E0022E02C0880FA0
:10041000991F0A94E2F750E08423952302C0959532
:1004200087952A95E2F70895813029F483B1881FD2
:100430008827881F089583B190E08071907044E010
:10044000959587954A95E1F708956623B9F082302E
:1004500078F042B1282F30E02250304081E090E027
:1004600002C0880F991F2A95E2F7482B42B90895D8
:10047000813011F42F9A08952C9A0895823080F0DB
:1004800042B1282F30E02250304081E090E002C09D
:10049000880F991F2A95E2F78095842382B90895E1
:1004A000813011F42F9808952C9808959C01369569
:1004B00027953695279522B945B190E09C0121708A
:1004C000307074E0220F331F7A95E1F74F76422B9C
:1004D00082709070959587959695982F8827979517
:1004E0008795482B45B9089540B183B123B130E0D9
:1004F00020713070B4E035952795BA95E1F750E05A
:10050000440F551F440F551F242B352B881F882758
:10051000881F90E0880F991F282B392BC901089557
:10052000823068F0282F30E02250304081E090E0A7
:1005300002C0880F991F2A95E2F780B9089581308B
:1005400011F480E801C080E183B9089528E088E1D2
:1005500090E00FB6F894A895809360000FBE2093AA
:100560006000FFCF54985C9A9A9A559A8FEF87B99A
:100570000E9479040895982F990F9A7A8695857527
:10058000982B892F880F880F8C7C9695969593735E
:10059000892B8295F8945E9A88B981E090E00E9458
:1005A00017015E98789408955F980E94BB0284E6D4
:1005B00090E00E9417010895282F30E086E0220F76
:1005C000331F8A95E1F7862F61E10E94A504892FE8
:1005D000822B80680E94D402089580EC0E94D4028D
:1005E000089580E80E94D402089588E00E94D40211
:1005F00008958CE00E94D40208955F9A0E94BB0285
:1006000082E390E00E94170108958F708A3010F401
:10061000805D01C0895C0E94FD0208950F931F93C5
:100620008C01812F82958F700E940503812F0E947B
:100630000503802F82958F700E940503802F0E94F2
:1006400005031F910F9108951F93182F82958F70A6
:100650000E940503812F0E9405031F910895CF93E7
:10066000DF93EC018A309105D8F18436910558F179
:1006700083E0C83ED807D0F087E2C031D80748F001
:10068000CE0160E177E20E94B104862F805D0E9476
:10069000FD02CE0160E177E20E94B10468EE73E0F2
:1006A0000E94B104862F805D0E94FD02CE0168EE9B
:1006B00073E00E94B10464E670E00E94B104862FEA
:1006C000805D0E94FD02CE0164E670E00E94B104EC
:1006D0006AE070E00E94B104862F805D0E94FD02F6
:1006E000CE016AE070E00E94B104805D0E94FD02CC
:1006F000DF91CF910895CF93DF93EC0197FD05C073
:100700008BE20E94FD02CE0107C08DE20E94FD0235
:10071000882799278C1B9D0B0E942F03DF91CF9177
:1007200008950F931F938C0160E177E20E94B1045A
:10073000862F805D0E94FD02C80160E177E20E9481
:10074000B10468EE73E00E94B104862F805D0E94C0
:10075000FD02C80168EE73E00E94B10464E670E037
:100760000E94B104862F805D0E94FD02C80164E6EC
:1007700070E00E94B1046AE070E00E94B104862F2C
:10078000805D0E94FD02C8016AE070E00E94B10431
:10079000805D0E94FD021F910F910895CF93DF931A
:1007A000EC0197FD05C08BE20E94FD02CE0107C05F
:1007B0008DE20E94FD02882799278C1B9D0B0E94C9
:1007C0009103DF91CF9108951F93182F8A3098F0ED
:1007D000843630F064E60E94A504805D0E94FD022C
:1007E000812F64E60E94A504892F6AE00E94A50477
:1007F000805D0E94FD02812F6AE00E94A504892F7E
:10080000805D0E94FD021F9108951F93182F87FDA0
:1008100005C08BE20E94FD02812F05C08DE20E947F
:10082000FD02812F81950E94E4031F9108951F937B
:10083000182F64E60E94A504805D0E94FD02812FAE
:1008400064E60E94A504892F6AE00E94A504805DE9
:100850000E94FD02812F6AE00E94A504892F805D1D
:100860000E94FD021F9108951F93182F87FD05C058
:100870008BE20E94FD02812F05C08DE20E94FD02E5
:10088000812F81950E9417041F9108951F93CF9384
:10089000DF93EC0110E003C01F5F0E94FD02FE0128
:1008A000E10FF11D80818823B9F7DF91CF911F916E
:1008B000089581E00E94D40284EE9CE00E9417011A
:1008C0000895AAE0B0E0E7E6F4E00C94D1047E01DC
:1008D0000894E11CF11CA70123E030E000E010E0E7
:1008E0000E94FC04C7010E9446042A96E6E00C948C
:1008F000ED04569A579A5E988FE090E00E940D01A1
:1009000088E30E94D40284E293E10E94170188E305
:100910000E94D40282E390E00E94170188E30E94C3
:10092000D40288E30E94D4020E94F5020E94590476
:1009300086E00E94D4020E94F90208950E94B20249
:1009400080E092E00E9446040895991B79E004C07B
:10095000991F961708F0961B881F7A95C9F78095FE
:100960000895AA1BBB1B51E107C0AA1FBB1FA617F6
:10097000B70710F0A61BB70B881F991F5A95A9F748
:1009800080959095BC01CD0108952F923F924F9292
:100990005F926F927F928F929F92AF92BF92CF920F
:1009A000DF92EF92FF920F931F93CF93DF93CDB718
:1009B000DEB7CA1BDB0B0FB6F894DEBF0FBECDBF90
:1009C00009942A88398848885F846E847D848C8461
:1009D0009B84AA84B984C884DF80EE80FD800C816A
:1009E0001B81AA81B981CE0FD11D0FB6F894DEBF4D
:1009F0000FBECDBFED010895DF92EF92FF920F93EE
:100A00001F93CF93DF937A01D02E122F283008F056
:100A100017E0A701212F00E00E948605682FF7014B
:100A20005191252F50FF04C053FD02C08DE209C033
:100A3000D1FE02C08BE205C0D0FC02C0C70104C0D9
:100A400080E2D7018C93CF01482F392F23FF03C0B9
:100A500064ED70E004C022FF0BC06CEC70E0D2FECD
:100A600002C06C5F7F4F842F932F0E945E0645C0AB
:100A7000F7012181DC012D93213309F05F7E1123E1
:100A8000A9F0E701842F932FFC01912F2EE28A8198
:100A90002183915021963196282F9923C1F7115027
:100AA000812F90E00196A80FB91F2D93D2FC02C0B0
:100AB00085E601C085E4962FFD01819367FF07C09D
:100AC0008DE211968C93DF01119691950AC06623F1
:100AD00029F454FF03C0DF018DE202C0DF018BE285
:100AE0008D9380E302C08F5F9A509A30E4F7FD0146
:100AF0008193905D11969C931182C701DF91CF91F4
:100B00001F910F91FF90EF90DF900895283008F02B
:100B100027E03327DA01990F311D87FD9160009698
:100B20006105710539F432602E5F3D9330E32A95FB
:100B3000E1F708959F3F30F080387105610509F0B5
:100B40003C5F3C5F3D93913008F08068911DDF93DE
:100B5000CF931F930F93FF92EF92192F987F969543
:100B6000E92F96959695E90FFF27EA5CFE4F9927A6
:100B70003327EE24FF24A701E7010590089407948A
:100B800028F4360FE71EF81E491F511D660F771F08
:100B9000881F991F0694A1F70590079428F4E70E83
:100BA000F81E491F561FC11D770F881F991F661F0A
:100BB0000694A1F70590079428F4F80E491F561FD4
:100BC000C71FD11D880F991F661F771F0694A1F7B5
:100BD0000590079420F4490F561FC71FD81F990F7F
:100BE000661F771F881F0694A9F7849110951770C8
:100BF00041F0D695C79557954795F794E7941A9580
:100C0000C1F7ECEDF0E06894159015913591659180
:100C1000959105907FE27395E118F10A430B560B0D
:100C2000C90BD009C0F7E10CF11E431F561FC91FA5
:100C3000D01D7EF4703311F48A95E6CFE89401500C
:100C400030F0080F0AF40027021708F4202F23952C
:100C5000022F7A3328F079E37D932A95E9F710C0C3
:100C60007D932A9589F606949795679537951795FC
:100C70001794E118F10A430B560BC90BD00998F0F1
:100C800023957E9173957A3308F070E37C9320135B
:100C9000B8F77E9170617D9330F0839571E37D9319
:100CA00070E32A95E1F71124EF90FF900F911F91C7
:100CB000CF91DF91992787FD90950895FB01DC0185
:0E0CC00005900D920020E1F70895F894FFCF03
:0E0CCE0048656C6C6F20576F726C64210000DB
:00000001FF
