:100000000C94EB000C940A010C940A010C940A0164
:100010000C940A010C940A010C940A010C940A0134
:100020000C940A010C940A010C940A010C940A0124
:100030000C940A010C940A010C940A010C940A0114
:100040000C940A010C940A010C940A010C940A0104
:100050000C940A010C940A010C940A010C940A01F4
:100060000C940A010C94AC070C940A010C940A013C
:100070000C940A010C940A010C940A010C940A01D4
:100080000C940A010C940A010C940A010C949C0A29
:100090000C94FB070C940A010C940A010C940A01BD
:1000A0000C940A010C940A010C940A010C940A01A4
:1000B0000C940A010C940A010C940A010C940A0194
:1000C0000C940A010C940A010C940A01696E6600F2
:1000D000494E46006E616E004E414E0000407A105F
:1000E000F35A00A0724E18090010A5D4E80000E8E9
:1000F0007648170000E40B54020000CA9A3B000047
:1001000000E1F505000080969800000040420F00D5
:100110000000A08601000000102700000000E80396
:10012000000000006400000000000A000000000061
:100130000100000000002C76D888DC674F0823DF20
:10014000C1DFAE59E1B1B796E5E3E453C63AE651F3
:10015000997696E8E6C28426EB898C9B62ED407C1A
:100160006FFCEFBC9C9F40F2BAA56FA5F490055AB6
:100170002AF75C936B6CF9676DC11BFCE0E40D47DB
:10018000FEF520E6B500D0ED902E030094357705FE
:100190000080841E080000204E0A000000C80C33B6
:1001A0003333330F986E12831141EF8D2114893B45
:1001B000E65516CFFEE6DB18D1844B381BF77C1DC5
:1001C000901DA4BBE424203284725E228100C9F118
:1001D00024ECA1E53D2711241FBECFEFD1E2DEBF05
:1001E000CDBF12E0A0E0B2E0E4ECF7E200E00BBF2C
:1001F00002C007900D92A434B107D9F712E0A4E42D
:10020000B2E001C01D92A635B107E1F70E940C01D2
:100210000C94E0130C940000CF92DF92EF92FF92C7
:100220000F931F93DF93CF93CDB7DEB7A3970FB68E
:10023000F894DEBF0FBECDBF94E1C92ED12CCC0EF9
:10024000DD1EC60160E875E240E00E944A08CE016A
:10025000039660E070E028EA31E640E050E00E945A
:100260003209CE0107960E94580A7E010894E11CCB
:10027000F11CC701B6010E9484018E01015F1F4F6E
:10028000C801B601A7010E9447038BE0E82EF12CBC
:10029000EC0EFD1EC701B8010E94CF06C8010E94E6
:1002A0001406C80160E072E00E947305C80161E0B5
:1002B00040E00E94CB05C80167E072E00E94730530
:1002C000C80160E048E00E94CB05C8010E94F80523
:1002D000C8010E94F005C6010E9480078823D9F357
:1002E000C6010E943807682F8F3731F08D3099F39F
:1002F000C7010E949506EFCFC7010E946406EBCFAD
:10030000FC01718360830895FC017183608308950B
:1003100054985C9A9A9A559A8FEF87B90895611507
:10032000710541F020EA3FE0C9010197F1F7615002
:100330007040D1F708956115710541F024E030E077
:10034000C9010197F1F761507040D1F7089589B163
:1003500082958F708095817008954C99FECF2EE123
:1003600030E040EA5FE0CA010197F1F721503040E8
:10037000D1F74C9BFECF2EE130E040EA5FE0CA01AE
:100380000197F1F721503040D1F70895A29A0895CE
:10039000A298089584B394E0892784BB08956230BD
:1003A000A0F062504130F9F04130D0F481B121E049
:1003B00030E002C0220F331F6A95E2F720958223B6
:1003C00081B982B1282322B90895613039F14130D1
:1003D000A1F1413060F1423029F424982C9A08951B
:1003E000423061F0089521B181E090E002C0880FB1
:1003F000991F6A95E2F7282B21B9089531B181E060
:1004000090E002C0880F991F6A95E2F7282F209587
:10041000232321B922B1822B82B90895413079F08A
:10042000413040F04230F1F627982F9A08952498F1
:100430002C98089527982F980895249A0895279A1C
:100440000895862F60FF0AC0249A81FD0AC027986C
:10045000769567957695679561B90895249881FF9B
:10046000F6CF279A769567957695679561B9089541
:10047000249903C060FF45C02C9A279903C061FFEF
:100480003EC02F9A769567957695679540E050E047
:1004900070E0E1E0F0E00FC022B1CF01042E02C015
:1004A000880F991F0A94E2F7282B22B94F5F5F4FFC
:1004B0004830510519F181B190E0042E02C09595A4
:1004C00087950A94E2F780FDF1CFCB01042E02C09C
:1004D000959587950A94E2F780FDDECF22B1CF0192
:1004E000042E02C0880F991F0A94E2F78095822398
:1004F00082B94F5F5F4F48305105E9F608952F9854
:10050000C1CF2C98BACF6230B0F040B1262F30E086
:100510002250304081E090E0022E02C0880F991FE7
:100520000A94E2F750E08423952302C095958795BD
:100530002A95E2F70895613069F083B190E0807107
:1005400090709595879595958795959587959595AF
:100550008795089583B1881F8827881F08954423AD
:1005600089F0623008F142B1262F30E0225030404D
:1005700081E090E002C0880F991F2A95E2F7482B8E
:1005800042B908956230A0F042B1262F30E02250E7
:10059000304081E090E002C0880F991F2A95E2F771
:1005A0008095842382B90895613031F02C9A0895A2
:1005B000613021F02C9808952F9A08952F9808956E
:1005C000CB01969587959695879582B925B170E070
:1005D000CB018170907082959295907F9827807F53
:1005E00098272F76282B6270707075956795769591
:1005F000762F662777956795262B25B9089540B104
:1006000083B123B130E02071307035952795359551
:100610002795359527953595279550E0440F551F1B
:10062000440F551F242B352B881F8827881F90E0E7
:10063000880F991F282B392BC9010895623068F063
:10064000262F30E02250304081E090E002C0880F39
:10065000991F2A95E2F780B90895613019F080E179
:1006600083B9089580E883B9089528E088E190E08F
:100670000FB6F894A895809360000FBE2093600099
:10068000FFCFFC0171836083538342830895FC0193
:1006900071836083538342830895FF920F931F9366
:1006A0008C01F89417B8FF24FA94F8B85F98179A59
:1006B0005E9AFC018281938161E070E00E949B015F
:1006C00088B15E9890E09C01220F331F2A7A95959D
:1006D00087958575282B30E0C901880F991F880FF1
:1006E000991F8C7C35952795359527952373822BFB
:1006F0008295F8018483F7B818B817987894F801B0
:1007000084811F910F91FF900895FC0170E0CB014F
:10071000880F991F8A7A759567956575862B90E085
:100720009C01220F331F220F331F2C7C9595879538
:10073000959587958373282B2295F89417985E9A40
:1007400028B98281938161E070E00E949B015E98EC
:10075000789408950F931F938C015F9A0E948503EC
:10076000F8018281938162E370E00E949B011F91F6
:100770000F9108956F706A3020F0695C0E94AA039F
:100780000895605D0E94AA030895EF92FF920F936F
:100790001F938C017B016F2D62956F700E94BA03CD
:1007A000C8016F2D0E94BA036E2D70E07595679594
:1007B000759567957595679575956795C8010E94BC
:1007C000BA03C8016E2D0E94BA031F910F91FF90CA
:1007D000EF900895FF920F931F938C01F62E70E017
:1007E00075956795759567957595679575956795F1
:1007F0000E94BA03C8016F2D0E94BA031F910F9186
:10080000FF9008950F931F93CF93DF938C01EB011B
:100810006A30710580F064367105E0F4CE0164E65B
:1008200070E00E949C106AE070E00E949C10605D85
:10083000C8010E94AA03CE016AE070E00E949C10E9
:10084000682F605DC8010E94AA03DF91CF911F91BC
:100850000F91089583E0683E780788F087E2603161
:100860007807D8F4CE0160E177E20E949C1068EE30
:1008700073E00E949C10605DC8010E94AA03CE0133
:1008800068EE73E00E949C1064E670E00E949C1089
:10089000605DC8010E94AA03C1CFCB0160E177E28D
:1008A0000E949C10605DC8010E94AA03DBCF0F93D9
:1008B0001F93CF93DF938C01EB0177FD0CC06BE2AC
:1008C0000E94AA03C801BE010E940204DF91CF91D9
:1008D0001F910F9108956DE20E94AA036627772762
:1008E0006C1B7D0BC8010E940204DF91CF911F9108
:1008F0000F910895EF92FF920F931F937C018B014C
:10090000CB0160E177E20E949C10605DC7010E940C
:10091000AA03C80160E177E20E949C1068EE73E0D0
:100920000E949C10605DC7010E94AA03C80168EE86
:1009300073E00E949C1064E670E00E949C10605D71
:10094000C7010E94AA03C80164E670E00E949C10DF
:100950006AE070E00E949C10605DC7010E94AA03DB
:10096000C8016AE070E00E949C10682F605DC701BA
:100970000E94AA031F910F91FF90EF9008950F938B
:100980001F93CF93DF938C01EB0177FD0CC06BE2DB
:100990000E94AA03C801BE010E947A04DF91CF9190
:1009A0001F910F9108956DE20E94AA036627772791
:1009B0006C1B7D0BC8010E947A04DF91CF911F91BF
:1009C0000F9108951F93CF93DF93EC01162F6A3098
:1009D00078F06436D0F4812F64E60E949010892F5D
:1009E0006AE00E949010682F605DCE010E94AA0309
:1009F000812F6AE00E949010692F605DCE010E94F5
:100A0000AA03DF91CF911F910895862F64E60E947B
:100A10009010682F605DCE010E94AA03DCCF1F9367
:100A2000CF93DF93EC01162F67FD0BC06BE20E94A2
:100A3000AA03CE01612F0E94E204DF91CF911F91A2
:100A400008956DE20E94AA031195CE01612F0E94C4
:100A5000E204DF91CF911F910895FF920F931F93AE
:100A60008C01F62E862F64E60E949010682F605D40
:100A7000C8010E94AA038F2D64E60E949010892F5E
:100A80006AE00E949010682F605DC8010E94AA036E
:100A90008F2D6AE00E949010692F605DC8010E944E
:100AA000AA031F910F91FF9008951F93CF93DF9397
:100AB000EC01162F67FD0BC06BE20E94AA03CE016A
:100AC000612F0E942D05DF91CF911F9108956DE256
:100AD0000E94AA031195CE01612F0E942D05DF917E
:100AE000CF911F910895EF92FF921F93CF93DF93C1
:100AF0007C01EB016881662359F010E01F5FC7019C
:100B00000E94AA03FE01E10FF11D60816623B1F787
:100B1000DF91CF911F91FF90EF900895CF92DF92D8
:100B2000EF92FF920F93DF93CF93CDB7DEB72A9763
:100B30000FB6F894DEBF0FBECDBF7C01CB01BA016A
:100B40006E010894C11CD11CA60123E000E00E94A4
:100B5000D210C701B6010E9473052A960FB6F89409
:100B6000DEBF0FBECDBFCF91DF910F91FF90EF9011
:100B7000DF90CF9008950F931F938C015F980E9490
:100B80008503F8018281938164E670E00E949B01F5
:100B90001F910F9108959C01562F842F5295550F48
:100BA000550F507C61E10E949010592B5068C9018B
:100BB000652F0E94BB05089560EC0E94BB05089557
:100BC0006FE80E94BB05089560E80E94BB05089588
:100BD00064E00E94BB05089566E00E94BB0508958D
:100BE0006DE00E94BB0508956CE00E94BB0508956E
:100BF0006EE00E94BB05089568E00E94BB05089561
:100C00006CE00E94BB0508950F931F938C0161E077
:100C10000E94BB05F8018281938164EE7CE00E9412
:100C20009B011F910F9108950F931F938C01569A6A
:100C3000579A0F9A17985E98FC01828193816FE012
:100C400070E00E948F01C80168E30E94BB05F801B3
:100C50008281938164E273E10E949B01C80168E391
:100C60000E94BB05F8018281938162E370E00E94DB
:100C70009B01C80168E30E94BB05C80168E30E94AC
:100C8000BB05C8010E94FC05C8010E940406C801FA
:100C900066E00E94BB05C8010E9400061F910F91EB
:100CA00008950F931F938C01FC01808191810E9414
:100CB0000406F801808191810E94E405F801138205
:100CC00012821F910F910895CF93DF93EC014B8116
:100CD000442329F48A818823A1F08130A9F041506E
:100CE0004B83888199816A810E94CB058881998193
:100CF00060E20E94AA03888199816A814B810E94E7
:100D0000CB05DF91CF9108958FE08B831A82888184
:100D100099810E94E0058881998160E20E94AA037E
:100D2000888199810E94E005ECCFCF93DF93EC019D
:100D30009B81903119F48A81813049F09F5F9B83B8
:100D4000888199810E94AA038B81803119F0DF91FB
:100D5000CF9108958A818823D1F71B8281E08A830D
:100D6000888199810E94DC05DF91CF9108950F93CE
:100D70001F938C01FC01808191810E94E405F801A0
:100D8000808191810E940406F801808191810E94F6
:100D9000F005F801138212821F910F9108950F93AD
:100DA0001F938C01CB01F801718360830E940406BC
:100DB000F801808191810E94F0051F910F910895A3
:100DC0000F931F938C01CB01F801718360830E9404
:100DD0000406F801808191810E94F0051F910F9116
:100DE0000895DC011896ED91FC91199780811C966D
:100DF0002C911C9730E090E082239323892B79F487
:100E000040E050E006C04F5F5F4F8EE4413258072C
:100E100099F0808190E082239323892BA1F3808134
:100E20001E969C911E97892B80831696ED91FC91BE
:100E30001797608381E0089580E008950F931F93D2
:100E4000CF93DF938C01EB016881662361F02196DB
:100E5000D801ED91FC910280F381E02DC801099544
:100E600068816623A1F7DF91CF911F910F910895BB
:100E7000FC018785882309F52091460230914702BD
:100E8000809148029091490228173907C1F1E091F9
:100E90004402F0914502E20FF31FE081C90101967F
:100EA00090934702809346028038910520F010927B
:100EB0004702109246028E2F089520914C023091E5
:100EC0004D0280914E0290914F0228173907B1F0E0
:100ED000E0914A02F0914B02E20FF31FE081C90159
:100EE000019690934D0280934C028038910518F33F
:100EF00010924D0210924C028E2F0895FFCFFFCF1B
:100F0000FC018785882379F040E020914C023091E4
:100F10004D0280914E0290914F022817390709F037
:100F200041E0842F089540E020914602309147022D
:100F300080914802909149022817390789F7842F38
:100F40000895FC01A081B18112962D913C911397D7
:100F50006CE0F901099508951F920F920FB60F9258
:100F60000BB60F9211242F933F938F939F93EF9380
:100F7000FF938091C600E0914402F09145022091D8
:100F8000480230914902E20FF31F8083209148020A
:100F9000309149022F5F3F4F30934902209348021E
:100FA0002038310530F0109249021092480220E0BA
:100FB00030E080914602909147022817390769F086
:100FC000FF91EF919F918F913F912F910F900BBEC9
:100FD0000F900FBE0F901F901895C9010196909326
:100FE0004702809346028038910550F310924702E1
:100FF00010924602E5CF1F920F920FB60F920BB6DA
:101000000F9211242F933F938F939F93EF93FF930E
:101010008091CE00E0914A02F0914B0220914E0265
:1010200030914F02E20FF31F808320914E023091E6
:101030004F022F5F3F4F30934F0220934E022038D4
:10104000310530F010924F0210924E0220E030E055
:1010500080914C0290914D022817390769F0FF9159
:10106000EF919F918F913F912F910F900BBE0F9019
:101070000FBE0F901F901895C901019690934D02D5
:1010800080934C028038910550F310924D021092DB
:101090004C02E5CFDF92EF92FF920F931F938C01EA
:1010A0007B01D42E0E94780CC8010696B7014D2D05
:1010B0000E945A0B83E192E0F80191838083D786E6
:1010C000DD20D9F08091C90080688093C90080E854
:1010D00090E00E94540B90934B0280934A0210922E
:1010E0004D0210924C0210924F0210924E021F912C
:1010F0000F91FF90EF90DF9008958091C10080687C
:101100008093C10080E890E00E94540B90934502C8
:1011100080934402109247021092460210924902B4
:10112000109248021F910F91FF90EF90DF90089569
:10113000DF92EF92FF920F931F938C017B01D42ECD
:101140000E94780CC8010696B7014D2D0E945A0BDB
:1011500083E192E0F80191838083D786DD20D9F086
:101160008091C90080688093C90080E890E00E9467
:10117000540B90934B0280934A0210924D021092AE
:101180004C0210924F0210924E021F910F91FF904D
:10119000EF90DF9008958091C10080688093C10036
:1011A00080E890E00E94540B9093450280934402A3
:1011B0001092470210924602109249021092480281
:1011C0001F910F91FF90EF90DF900895FC01108226
:1011D0001182128213820895FC0110821182128200
:1011E00013820895FC0140835183628373830895C1
:1011F000FC0140835183628373830895FC01408323
:101200005183628373830895CF92DF92EF92FF92AE
:101210000F931F936C0179018A01EE0CFF1C001FD4
:10122000111F8EEF9FEFAFEFBFE1E822F9220A23F3
:101230001B2380E090E020E834E84EE150E00E947B
:101240007110E60EF71E081F191FD601ED92FD92D0
:101250000D931C9313971F910F91FF90EF90DF90C8
:10126000CF9008950E94040908950E9404090895EA
:10127000FC0160817181828193810895FC0160810C
:1012800071818281938120E834E84EE150E00E9430
:10129000B010C9010895FC01608171818281938140
:1012A00020E834E84EE150E00E94B0109B01AC0110
:1012B00056954795379527955F70B901CA010895EE
:1012C000DC01FB0120813181428153818D919D910F
:1012D0000D90BC91A02D280F391F4A1F5B1FB9012B
:1012E000CA010895FC01DB012081318142815381D3
:1012F0008D919D910D90BC91A02D281B390B4A0B0F
:101300005B0BB901CA0108950F931F93CF93DF932D
:101310008C01FB01EC0188819981AA81BB8120812C
:10132000318142815381820F931FA41FB51FF801A1
:1013300080839183A283B383DF91CF911F910F911B
:1013400008950F931F93CF93DF938C01FB01EC0162
:1013500088819981AA81BB81208131814281538119
:10136000821B930BA40BB50BF80180839183A2839E
:10137000B383DF91CF911F910F9108950F931F9326
:101380008C01FB01DC016D917D918D919C912081FF
:101390003181428153810E94B010F8012083318352
:1013A000428353831F910F910895DC01FB0160E09C
:1013B00020813181428153818D919D910D90BC910D
:1013C000A02D281739074A075B0711F0862F0895CB
:1013D00061E0862F0895FC019B0160E0808191818E
:1013E000A281B381F9012081318142815381821B25
:1013F000930BA40BB50BB7FF61E0862F0895FC019A
:101400009B0160E080819181A281B381F9012081FB
:10141000318142815381821B930BA40BB50B1816AB
:1014200019061A061B060CF461E0862F0895FC01CC
:101430009B0160E080819181A281B381F9012081CB
:10144000318142815381821B930BA40BB50B18167B
:1014500019061A061B0614F4862F089561E0862FDC
:101460000895FC019B0160E080819181A281B3819C
:10147000F9012081318142815381821B930BA40B9E
:10148000B50BB7FD02C0862F089561E0862F089541
:10149000FC0110821182128213821092900082E06D
:1014A00080939100E1E7F0E080818160808308957E
:1014B000FC0110821182128213821092900082E04D
:1014C00080939100E1E7F0E080818160808308955E
:1014D000FB012FB7809194009091950091838083B8
:1014E000F8948091500290915102938382832FBF90
:1014F0000895FC012FB780919400909195009183FD
:101500008083F8948091500290915102938382835A
:101510002FBFCF010895FB012FB7F89482819381EB
:101520009093510280935002808191819093950015
:10153000809394002FBF08951F920F920FB60F92C1
:1015400011248F939F9380915002909151020196A4
:1015500090935102809350029F918F910F900FBEF4
:101560000F901F9018956F927F928F929F92AF92DB
:10157000BF92CF92DF92EF92FF920F931F93CF9380
:10158000DF93EC018B01CB010E943E097C01C80175
:101590000E944B093B014C01CE01B7010E94DE0EB7
:1015A000E881F9810280F381E02DCE016EE2099598
:1015B00020EAC22E26E8D22E21E0E22EF12CAA2427
:1015C000BB2408811981B301C401A70196010E94BF
:1015D000B010205DD8011296ED91FC911397CE01C9
:1015E000622F0995B301C401A70196010E94B010B2
:1015F0003B014C01C701B6012AE030E040E050E079
:101600000E94B010C901DA016C017D010894A11C8F
:10161000B11CB6E0AB16B104A1F6CE01DF91CF91BB
:101620001F910F91FF90EF90DF90CF90BF90AF9000
:101630009F908F907F906F9008950F931F93182F16
:10164000092FFB012FB78091940090919500918311
:101650008083F89480915002909151029383828309
:101660002FBF812F902F0E94B30A812F902F1F919F
:101670000F910895FC0120E030E08081882311F46F
:1016800021E030E0C9010895FC0181E080830895E4
:1016900008950895009711F00E9409120895009787
:1016A00011F00E94091208950E945C1108950E9491
:1016B0005C110895CF93DF93EC01442309F441C0FA
:1016C0008EEC90E09983888388EC90E09B838A83FA
:1016D00089EC90E09D838C8388E18093C90086E04B
:1016E0008093CA001092CD009B0140E050E0220F91
:1016F000331F441F551F220F331F441F551F220F36
:10170000331F441F551F220F331F441F551F60E016
:1017100074E284EF90E00E94B0102093CC0080919E
:10172000C80081608093C80080E28E8380E88F8348
:1017300080E48887E881F98180818081DF91CF9181
:10174000089586EC90E09983888380EC90E09B83F9
:101750008A8381EC90E09D838C8388E18093C10033
:1017600086E08093C2001092C5009B0140E050E0EB
:10177000220F331F441F551F220F331F441F551FB5
:10178000220F331F441F551F220F331F441F551FA5
:1017900060E074E284EF90E00E94B0102093C400F7
:1017A0008091C00081608093C000BECFCF93DF9353
:1017B000EC01442309F441C08EEC90E099838883C6
:1017C00088EC90E09B838A8389EC90E09D838C83F6
:1017D00088E18093C90086E08093CA001092CD0012
:1017E0009B0140E050E0220F331F441F551F220F82
:1017F000331F441F551F220F331F441F551F220F35
:10180000331F441F551F60E074E284EF90E00E9494
:10181000B0102093CC008091C80081608093C800F4
:1018200080E28E8380E88F8380E48887E881F98175
:1018300080818081DF91CF91089586EC90E099833B
:10184000888380EC90E09B838A8381EC90E09D8389
:101850008C8388E18093C10086E08093C20010925F
:10186000C5009B0140E050E0220F331F441F551F6D
:10187000220F331F441F551F220F331F441F551FB4
:10188000220F331F441F551F60E074E284EF90E085
:101890000E94B0102093C4008091C00081608093AA
:1018A000C000BECFDC011296ED91FC911397208110
:1018B00040E030E016968C9190E028233923232BCA
:1018C00009F041E0842F0895DC011296ED91FC911E
:1018D0001397208140E030E018968C9190E0282307
:1018E0003923232B09F441E0842F089508950895A6
:1018F000FC018FE292E0918380838AE082831382ED
:1019000083E0858314820895FC018FE292E0918345
:1019100080838AE08283138283E085831482089522
:1019200081E0089580E0089580E008950895089585
:101930000F931F93CF93DF938C01EB01DC0114967F
:101940008C91882319F1F8011482FB0164916623BC
:1019500071F02196D801ED91FC910280F381E02D88
:10196000C8010995FE0121966491662399F7C80183
:10197000DF91CF911F910F9108952196D801ED919C
:10198000FC910280F381E02DC801099568816623EE
:10199000A1F7C801DF91CF911F910F910895CF93C7
:1019A000DF93EC01662359F4E881F9810280F38129
:1019B000E02D66E40995CE01DF91CF910895E8818D
:1019C000F9810280F381E02D64E50995CE01DF9174
:1019D000CF910895883008F087E080932A0289E04B
:1019E0000895CF93DF93EC01643009F441C0653072
:1019F000A0F0673049F16830D8F4653019F16630ED
:101A000041F4E881F9810480F581E02D61E272E022
:101A10000995CE01DF91CF910895613031F16130A8
:101A200070F06230C1F06330A1F780E18A83F1CFBA
:101A30006830A1F06A3069F781E08C83EACF82E0F8
:101A40008A83E7CF1B82E5CFE881F9810484F5859D
:101A5000E02D0995DECF8AE08A83DBCFE881F9812A
:101A60000284F385E02D0995D4CF88E08A83D1CF15
:101A700081E08B83CECFAF92BF92CF92DF92EF9275
:101A8000FF920F931F93DF93CF93CDB7DEB72997C4
:101A90000FB6F894DEBF0FBECDBF6C01162FDC0170
:101AA00013968C911397882309F05FC0F601428149
:101AB000423089F1403109F060C062956F70D60103
:101AC000ED91FC910280F381E02D6A3008F068C04E
:101AD000605DC6010995612F6F70D601ED91FC9193
:101AE0000280F381E02D6A3008F45CC0695CC601B5
:101AF0000995C60129960FB6F894DEBF0FBECDBF7B
:101B0000CF91DF911F910F91FF90EF90DF90CF90D9
:101B1000BF90AF900895A62EBB2480E8EE24FF244A
:101B200013C0D601ED91FC910280F381E02DC60136
:101B300061E3099515950795802F0894E11CF11C28
:101B4000B8E0EB16F104A9F2082F10E0C8018A21D1
:101B50009B21892B31F7D601ED91FC910280F38115
:101B6000E02DC60160E30995E5CFED91FC9102807F
:101B7000F381E02DC6010995BCCF862F90E08E0140
:101B80000F5F1F4FB80150E00E94BA13D601ED91CC
:101B9000FC910480F581E02DC601B8010995A9CF1B
:101BA000695C97CF605DA3CFEF92FF920F931F9375
:101BB000DF93CF93CDB7DEB728970FB6F894DEBF8B
:101BC0000FBECDBFF82EE92E09831A832B833C83E9
:101BD0004D835E836F837887672F0E943B0D6F81F3
:101BE0000E943B0D6E810E943B0D6D810E943B0D5A
:101BF0006C810E943B0D6B810E943B0D6A810E94AB
:101C00003B0D69810E943B0D8F2D9E2D28960FB6AE
:101C1000F894DEBF0FBECDBFCF91DF911F910F9122
:101C2000FF90EF900895DF92EF92FF920F931F9332
:101C3000DF93CF93CDB7DEB7A1970FB6F894DEBF91
:101C40000FBECDBF7C01D42E152F062F372FDC0100
:101C500012962C912031C9F02830B9F02230A9F029
:101C6000642F752F802F932F8E010F5F1F4FA801B8
:101C700030E00E949513D701ED91FC910480F5812D
:101C8000E02DC701B80109950DC0C701632F0E945F
:101C90003B0D602F0E943B0D612F0E943B0D6D2D6F
:101CA0000E943B0DC701A1960FB6F894DEBF0FBE90
:101CB000CDBFCF91DF911F910F91FF90EF90DF90FB
:101CC0000895EF92FF920F931F93DF93CF93CDB7B9
:101CD000DEB7A2970FB6F894DEBF0FBECDBF7C0172
:101CE000DC0112968C918A3089F0C7010E94130E94
:101CF000C701A2960FB6F894DEBF0FBECDBFCF913D
:101D0000DF911F910F91FF90EF900895CB01BA01E1
:101D10008E010F5F1F4FA8012AE030E00E9461137F
:101D2000D701ED91FC910480F581E02DC701B80148
:101D30000995DECFEF92FF920F931F93DF93CF931E
:101D400000D000D00F92CDB7DEB77C01DC01139636
:101D50008C9113978823A1F4F70182818A30C1F016
:101D6000C7010E943B0DC7010F900F900F900F907D
:101D70000F90CF91DF911F910F91FF90EF900895F9
:101D8000ED91FC910280F381E02DC7010995EBCF25
:101D9000862F992787FD90958E010F5F1F4FB80101
:101DA0004AE050E00E944013D701ED91FC9104807D
:101DB000F581E02DC701B8010995D5CFCF92DF920B
:101DC000EF92FF920F931F93DF93CF93CDB7DEB7C0
:101DD00061970FB6F894DEBF0FBECDBF6C01DC017A
:101DE00012964C914031B1F04830A1F0423091F060
:101DF000CB018E010F5F1F4FB80150E00E94BA1354
:101E0000D601ED91FC910480F581E02DC601B80169
:101E1000099508C07B01C6016F2D0E943B0D6E2DF8
:101E20000E943B0DC60161960FB6F894DEBF0FBE4F
:101E3000CDBFCF91DF911F910F91FF90EF90DF9079
:101E4000CF900895EF92FF920F931F93DF93CF935C
:101E5000CDB7DEB761970FB6F894DEBF0FBECDBF2A
:101E60007C01DC0112968C918A3089F0C7010E94B6
:101E7000DE0EC70161960FB6F894DEBF0FBECDBF70
:101E8000CF91DF911F910F91FF90EF900895CB01BB
:101E90008E010F5F1F4FB8014AE050E00E944013CF
:101EA000D701ED91FC910480F581E02DC701B801C7
:101EB0000995DFCFAF92BF92DF92EF92FF920F931F
:101EC0001F93DF93CF93CDB7DEB764970FB6F89427
:101ED000DEBF0FBECDBF7C01DC011596DC90CB01CF
:101EE000BA01AE014F5F5F4F2D2D00E10E946112DC
:101EF0005C01898183FD5EC080FD52C0D701ED91F8
:101F0000FC910280F381E02DC7016A810995DD20F3
:101F1000E9F56B818E010D5F1F4FD701ED91FC91AB
:101F20000280F381E02DC7010995DA9431F00F5F4B
:101F30001F4FF8016081662381F7D701ED91FC9175
:101F40000280F381E02DC70165E609951A141B0490
:101F50004CF4D701ED91FC910280F381E02DC70193
:101F60006BE20995C701B5010E94220F64960FB676
:101F7000F894DEBF0FBECDBFCF91DF911F910F91BF
:101F8000FF90EF90DF90BF90AF900895D701ED9153
:101F9000FC910280F381E02DC7016EE20995B9CF73
:101FA000D701ED91FC910280F381E02DC7016DE234
:101FB0000995A4CFC70164E272E00E94980CC701A2
:101FC000D5CFAF92BF92DF92EF92FF920F931F9304
:101FD000DF93CF93CDB7DEB764970FB6F894DEBF2B
:101FE0000FBECDBF7C01DC0115961C91CB01BA015F
:101FF000AE014F5F5F4F212F00E10E9461125C0133
:10200000898183FD67C080FD5BC0D701ED91FC91A4
:102010000280F381E02DC7016A810995112349F5FA
:10202000D701ED91FC910280F381E02DC70165E6B7
:1020300009951A141B044CF4D701ED91FC91028010
:10204000F381E02DC7016BE20995C701B5010E943C
:10205000220F64960FB6F894DEBF0FBECDBFCF91AE
:10206000DF911F910F91FF90EF90DF90BF90AF90A5
:102070000895D701ED91FC910280F381E02DC70115
:102080006EE20995111664F66B81662349F2D12E32
:10209000DA948E010D5F1F4FD701ED91FC91028004
:1020A000F381E02DC70109951D140CF0B9CF0F5F26
:1020B0001F4FF8016081DA94662309F4B1CFECCFA9
:1020C000D701ED91FC910280F381E02DC7016DE213
:1020D00009959BCFC70164E272E00E94980CC7018A
:1020E000B8CF629FD001739FF001829FE00DF11D78
:1020F000649FE00DF11D929FF00D839FF00D749F82
:10210000F00D659FF00D9927729FB00DE11DF91F2D
:10211000639FB00DE11DF91FBD01CF01112408958A
:10212000991B79E004C0991F961708F0961B881F29
:102130007A95C9F780950895AA1BBB1B51E107C08A
:10214000AA1FBB1FA617B70710F0A61BB70B881F47
:10215000991F5A95A9F780959095BC01CD010895D6
:10216000A1E21A2EAA1BBB1BFD010DC0AA1FBB1F9B
:10217000EE1FFF1FA217B307E407F50720F0A21B0D
:10218000B30BE40BF50B661F771F881F991F1A947A
:1021900069F760957095809590959B01AC01BD01A4
:1021A000CF010895DF92EF92FF920F931F93CF9389
:1021B000DF937A01D02E122F283008F017E0A70104
:1021C000212F00E00E946112682FF7015191252F05
:1021D00050FF04C053FD02C08DE209C0D1FE02C011
:1021E0008BE205C0D0FC02C0C70104C080E2D70169
:1021F0008C93CF01482F392F23FF03C064ED70E08B
:1022000004C022FF0BC06CEC70E0D2FE02C06C5F19
:102210007F4F842F932F0E94391345C0F7012181EE
:10222000DC012D93213309F05F7E1123A9F0E70132
:10223000842F932FFC01912F2EE28A8121839150CC
:1022400021963196282F9923C1F71150812F90E0C4
:102250000196A80FB91F2D93D2FC02C085E601C0DC
:1022600085E4962FFD01819367FF07C08DE21196EB
:102270008C93DF01119691950AC0662329F454FFCF
:1022800003C0DF018DE202C0DF018BE28D9380E3AA
:1022900002C08F5F9A509A30E4F7FD018193905D00
:1022A00011969C931182C701DF91CF911F910F91DD
:1022B000FF90EF90DF900895CF93DF93BC018230C1
:1022C000910510F462E070E0A0915402B0915502C3
:1022D000ED01E0E0F0E040E050E021C0888199812C
:1022E0008617970769F48A819B81309719F0938349
:1022F000828304C09093550280935402FE0134C03F
:102300006817790738F44115510519F084179507B6
:1023100008F4AC01FE018A819B819C01E9012097B0
:10232000E9F641155105A9F1CA01861B970B0497DF
:1023300008F4BA01E0E0F0E02AC08D919C91119779
:1023400084179507F9F46417750781F412968D9137
:102350009C911397309719F09383828304C09093D4
:10236000550280935402FD0132964FC0CA01861B6C
:10237000970BFD01E80FF91F6193719302978D93FD
:102380009C9343C0FD01828193819C01D9011097E8
:10239000A1F68091520290915302892B41F48091D1
:1023A0003F029091400290935302809352024091D9
:1023B0004102509142024115510541F44DB75EB7BB
:1023C00080913D0290913E02481B590B2091520290
:1023D0003091530224173507B0F4CA01821B930BC6
:1023E0008617970780F0AB014E5F5F4F8417950704
:1023F00050F0420F531F5093530240935202F90181
:102400006193719302C0E0E0F0E0CF01DF91CF91E2
:102410000895CF93DF93009709F450C0EC01229701
:102420001B821A82A0915402B0915502109709F1B3
:1024300040E050E0AC17BD0708F1BB83AA83FE0162
:1024400021913191E20FF31FAE17BF0779F48D91FF
:102450009C911197280F391F2E5F3F4F3983288396
:1024600012968D919C9113979B838A8341155105F8
:1024700071F4D0935502C093540220C012968D91EE
:102480009C911397AD01009711F0DC01D3CFFA01B5
:10249000D383C28321913191E20FF31FCE17DF075F
:1024A00069F488819981280F391F2E5F3F4FFA0107
:1024B000318320838A819B8193838283DF91CF91B3
:1024C0000895283008F027E03327DA01990F311DED
:1024D00087FD916000966105710539F432602E5FC9
:1024E0003D9330E32A95E1F708959F3F30F080381F
:1024F0007105610509F03C5F3C5F3D93913008F048
:102500008068911DDF93CF931F930F93FF92EF92FB
:10251000192F987F9695E92F96959695E90FFF27A5
:10252000EA5CFE4F99273327EE24FF24A701E70139
:1025300005900894079428F4360FE71EF81E491FEB
:10254000511D660F771F881F991F0694A1F70590EC
:10255000079428F4E70EF81E491F561FC11D770F78
:10256000881F991F661F0694A1F70590079428F409
:10257000F80E491F561FC71FD11D880F991F661FD0
:10258000771F0694A1F70590079420F4490F561F72
:10259000C71FD81F990F661F771F881F0694A9F7BA
:1025A00084911095177041F0D695C795579547952A
:1025B000F794E7941A95C1F7ECEDF0E06894159064
:1025C000159135916591959105907FE27395E1188C
:1025D000F10A430B560BC90BD009C0F7E10CF11EF1
:1025E000431F561FC91FD01D7EF4703311F48A9506
:1025F000E6CFE894015030F0080F0AF400270217E4
:1026000008F4202F2395022F7A3328F079E37D9365
:102610002A95E9F710C07D932A9589F60694979537
:102620006795379517951794E118F10A430B560BE8
:10263000C90BD00998F023957E9173957A3308F0F1
:1026400070E37C932013B8F77E9170617D9330F036
:10265000839571E37D9370E32A95E1F71124EF9060
:10266000FF900F911F91CF91DF91992787FD909552
:102670000895FB01DC0105900D920020E1F708951B
:10268000FB019F01E8944230C4F04532B4F44A3073
:1026900029F497FB1EF4909581959F4F642F77271F
:1026A0000E949C10805D8A330CF0895D8193CB0180
:1026B0000097A1F716F45DE251931082C9010C94C2
:1026C000D013FA01CF93FF93EF93223044F12532D8
:1026D00034F5C22FE894CA3049F497FB3EF4909544
:1026E0008095709561957F4F8F4F9F4F2C2F33278B
:1026F00044275527FF93EF930E94B010EF91FF916D
:10270000605D6A330CF0695D6193B901CA01605084
:1027100070408040904051F716F4CDE2C193108292
:102720008F919F91CF910C94D013FA01CF93FF9387
:10273000EF932230CCF02532BCF4C22F2C2F33275C
:1027400044275527FF93EF930E94B010EF91FF911C
:10275000605D6A330CF0695D6193B901CA01605034
:1027600070408040904051F710828F919F91CF919F
:102770000C94D013FB019F01423074F0453264F495
:10278000642F77270E949C10805D8A330CF0895D4E
:102790008193CB010097A1F71082C9010C94D0134B
:1027A000DC01FC01672F71917723E1F7329704C0B8
:1027B0007C916D9370836291AE17BF07C8F3089543
:0427C000F894FFCFBB
:1027C400696E7075743A006F75747075743A0000B0
:1027D400000000900CF1061E0780073807960CA134
:1027E400070D0A0020204E614E00030000000090F7
:1027F4000C760C770C940C920C960C970C200056CB
:0428040002000000CE
:00000001FF
